{
  "address": "0x7c9c7b185f9e21A2b9079188d98ECeAc0C343c4a",
  "abi": [
    {
      "inputs": [
        {
          "internalType": "uint256",
          "name": "_locktime",
          "type": "uint256"
        },
        {
          "internalType": "address",
          "name": "dataFeedAddr",
          "type": "address"
        }
      ],
      "stateMutability": "payable",
      "type": "constructor"
    },
    {
      "inputs": [],
      "name": "dataFeed",
      "outputs": [
        {
          "internalType": "contract AggregatorV3Interface",
          "name": "",
          "type": "address"
        }
      ],
      "stateMutability": "view",
      "type": "function"
    },
    {
      "inputs": [],
      "name": "fund",
      "outputs": [],
      "stateMutability": "payable",
      "type": "function"
    },
    {
      "inputs": [
        {
          "internalType": "address",
          "name": "",
          "type": "address"
        }
      ],
      "name": "funderToAmount",
      "outputs": [
        {
          "internalType": "uint256",
          "name": "",
          "type": "uint256"
        }
      ],
      "stateMutability": "view",
      "type": "function"
    },
    {
      "inputs": [],
      "name": "getChainlinkDataFeedLatestAnswer",
      "outputs": [
        {
          "internalType": "int256",
          "name": "",
          "type": "int256"
        }
      ],
      "stateMutability": "view",
      "type": "function"
    },
    {
      "inputs": [],
      "name": "getFund",
      "outputs": [],
      "stateMutability": "nonpayable",
      "type": "function"
    },
    {
      "inputs": [],
      "name": "getFundSuccess",
      "outputs": [
        {
          "internalType": "bool",
          "name": "",
          "type": "bool"
        }
      ],
      "stateMutability": "view",
      "type": "function"
    },
    {
      "inputs": [],
      "name": "owner",
      "outputs": [
        {
          "internalType": "address",
          "name": "",
          "type": "address"
        }
      ],
      "stateMutability": "view",
      "type": "function"
    },
    {
      "inputs": [],
      "name": "refund",
      "outputs": [],
      "stateMutability": "nonpayable",
      "type": "function"
    },
    {
      "inputs": [
        {
          "internalType": "address",
          "name": "_erc20Addr",
          "type": "address"
        }
      ],
      "name": "setErc20Addr",
      "outputs": [],
      "stateMutability": "nonpayable",
      "type": "function"
    },
    {
      "inputs": [
        {
          "internalType": "address",
          "name": "funder",
          "type": "address"
        },
        {
          "internalType": "uint256",
          "name": "amountToUpdate",
          "type": "uint256"
        }
      ],
      "name": "setFunderToAmount",
      "outputs": [],
      "stateMutability": "nonpayable",
      "type": "function"
    },
    {
      "inputs": [
        {
          "internalType": "address",
          "name": "newOwner",
          "type": "address"
        }
      ],
      "name": "transferOwnership",
      "outputs": [],
      "stateMutability": "nonpayable",
      "type": "function"
    }
  ],
  "transactionHash": "0x9f4f5862082f7a7155daff0df7acad4c7e6cfd747bc8ebf8c6bc6e050f49eb81",
  "args": [
    180,
    "0x694AA1769357215DE4FAC081bf1f309aDC325306"
  ],
  "numDeployments": 1,
  "solcInputHash": "6cf2603317fef2a65ab0d9bba5f995c9",
  "bytecode": "0x608060405260405161157938038061157983398181016040528101906100259190610155565b4260028190555080600560006101000a81548173ffffffffffffffffffffffffffffffffffffffff021916908373ffffffffffffffffffffffffffffffffffffffff16021790555033600160006101000a81548173ffffffffffffffffffffffffffffffffffffffff021916908373ffffffffffffffffffffffffffffffffffffffff160217905550816003819055505050610195565b600080fd5b6000819050919050565b6100d4816100c1565b81146100df57600080fd5b50565b6000815190506100f1816100cb565b92915050565b600073ffffffffffffffffffffffffffffffffffffffff82169050919050565b6000610122826100f7565b9050919050565b61013281610117565b811461013d57600080fd5b50565b60008151905061014f81610129565b92915050565b6000806040838503121561016c5761016b6100bc565b5b600061017a858286016100e2565b925050602061018b85828601610140565b9150509250929050565b6113d5806101a46000396000f3fe60806040526004361061009c5760003560e01c80639e42ff90116100645780639e42ff9014610160578063b60d42881461018b578063bea4dfb514610195578063d39cf006146101c0578063da4658e0146101e9578063f2fde38b146102145761009c565b806313ffff01146100a15780634407e1e8146100ca578063590e1ae3146101075780638da5cb5b1461011e5780638edd6eb614610149575b600080fd5b3480156100ad57600080fd5b506100c860048036038101906100c39190610b78565b61023d565b005b3480156100d657600080fd5b506100f160048036038101906100ec9190610b78565b610311565b6040516100fe9190610bbe565b60405180910390f35b34801561011357600080fd5b5061011c610329565b005b34801561012a57600080fd5b5061013361050a565b6040516101409190610be8565b60405180910390f35b34801561015557600080fd5b5061015e610530565b005b34801561016c57600080fd5b50610175610776565b6040516101829190610c62565b60405180910390f35b61019361079c565b005b3480156101a157600080fd5b506101aa610886565b6040516101b79190610c96565b60405180910390f35b3480156101cc57600080fd5b506101e760048036038101906101e29190610cdd565b610927565b005b3480156101f557600080fd5b506101fe6109fe565b60405161020b9190610d38565b60405180910390f35b34801561022057600080fd5b5061023b60048036038101906102369190610b78565b610a11565b005b600160009054906101000a900473ffffffffffffffffffffffffffffffffffffffff1673ffffffffffffffffffffffffffffffffffffffff163373ffffffffffffffffffffffffffffffffffffffff16146102cd576040517f08c379a00000000000000000000000000000000000000000000000000000000081526004016102c490610db0565b60405180910390fd5b80600460006101000a81548173ffffffffffffffffffffffffffffffffffffffff021916908373ffffffffffffffffffffffffffffffffffffffff16021790555050565b60006020528060005260406000206000915090505481565b6003546002546103399190610dff565b42101561037b576040517f08c379a000000000000000000000000000000000000000000000000000000000815260040161037290610e7f565b60405180910390fd5b680ad78ebc5ac620000061038e47610ae5565b106103ce576040517f08c379a00000000000000000000000000000000000000000000000000000000081526004016103c590610eeb565b60405180910390fd5b60008060003373ffffffffffffffffffffffffffffffffffffffff1673ffffffffffffffffffffffffffffffffffffffff16815260200190815260200160002054905060008103610454576040517f08c379a000000000000000000000000000000000000000000000000000000000815260040161044b90610f57565b60405180910390fd5b60003373ffffffffffffffffffffffffffffffffffffffff168260405161047a90610fa8565b60006040518083038185875af1925050503d80600081146104b7576040519150601f19603f3d011682016040523d82523d6000602084013e6104bc565b606091505b50508091505080610502576040517f08c379a00000000000000000000000000000000000000000000000000000000081526004016104f990611009565b60405180910390fd5b600091505050565b600160009054906101000a900473ffffffffffffffffffffffffffffffffffffffff1681565b6003546002546105409190610dff565b421015610582576040517f08c379a000000000000000000000000000000000000000000000000000000000815260040161057990610e7f565b60405180910390fd5b600160009054906101000a900473ffffffffffffffffffffffffffffffffffffffff1673ffffffffffffffffffffffffffffffffffffffff163373ffffffffffffffffffffffffffffffffffffffff1614610612576040517f08c379a000000000000000000000000000000000000000000000000000000000815260040161060990610db0565b60405180910390fd5b680ad78ebc5ac620000061062547610ae5565b1015610666576040517f08c379a000000000000000000000000000000000000000000000000000000000815260040161065d90611075565b60405180910390fd5b60003373ffffffffffffffffffffffffffffffffffffffff164760405161068c90610fa8565b60006040518083038185875af1925050503d80600081146106c9576040519150601f19603f3d011682016040523d82523d6000602084013e6106ce565b606091505b50508091505080610714576040517f08c379a000000000000000000000000000000000000000000000000000000000815260040161070b90611009565b60405180910390fd5b60008060003373ffffffffffffffffffffffffffffffffffffffff1673ffffffffffffffffffffffffffffffffffffffff168152602001908152602001600020819055506001600460146101000a81548160ff02191690831515021790555050565b600560009054906101000a900473ffffffffffffffffffffffffffffffffffffffff1681565b68056bc75e2d631000006107af34610ae5565b10156107f0576040517f08c379a00000000000000000000000000000000000000000000000000000000081526004016107e7906110e1565b60405180910390fd5b6003546002546108009190610dff565b4210610841576040517f08c379a00000000000000000000000000000000000000000000000000000000081526004016108389061114d565b60405180910390fd5b346000803373ffffffffffffffffffffffffffffffffffffffff1673ffffffffffffffffffffffffffffffffffffffff16815260200190815260200160002081905550565b600080600560009054906101000a900473ffffffffffffffffffffffffffffffffffffffff1673ffffffffffffffffffffffffffffffffffffffff1663feaf968c6040518163ffffffff1660e01b815260040160a060405180830381865afa1580156108f6573d6000803e3d6000fd5b505050506040513d601f19601f8201168201806040525081019061091a91906111f0565b5050509150508091505090565b600460009054906101000a900473ffffffffffffffffffffffffffffffffffffffff1673ffffffffffffffffffffffffffffffffffffffff163373ffffffffffffffffffffffffffffffffffffffff16146109b7576040517f08c379a00000000000000000000000000000000000000000000000000000000081526004016109ae906112dd565b60405180910390fd5b806000808473ffffffffffffffffffffffffffffffffffffffff1673ffffffffffffffffffffffffffffffffffffffff168152602001908152602001600020819055505050565b600460149054906101000a900460ff1681565b600160009054906101000a900473ffffffffffffffffffffffffffffffffffffffff1673ffffffffffffffffffffffffffffffffffffffff163373ffffffffffffffffffffffffffffffffffffffff1614610aa1576040517f08c379a0000000000000000000000000000000000000000000000000000000008152600401610a9890610db0565b60405180910390fd5b80600160006101000a81548173ffffffffffffffffffffffffffffffffffffffff021916908373ffffffffffffffffffffffffffffffffffffffff16021790555050565b600080610af0610886565b90506305f5e1008184610b0391906112fd565b610b0d919061136e565b915050919050565b600080fd5b600073ffffffffffffffffffffffffffffffffffffffff82169050919050565b6000610b4582610b1a565b9050919050565b610b5581610b3a565b8114610b6057600080fd5b50565b600081359050610b7281610b4c565b92915050565b600060208284031215610b8e57610b8d610b15565b5b6000610b9c84828501610b63565b91505092915050565b6000819050919050565b610bb881610ba5565b82525050565b6000602082019050610bd36000830184610baf565b92915050565b610be281610b3a565b82525050565b6000602082019050610bfd6000830184610bd9565b92915050565b6000819050919050565b6000610c28610c23610c1e84610b1a565b610c03565b610b1a565b9050919050565b6000610c3a82610c0d565b9050919050565b6000610c4c82610c2f565b9050919050565b610c5c81610c41565b82525050565b6000602082019050610c776000830184610c53565b92915050565b6000819050919050565b610c9081610c7d565b82525050565b6000602082019050610cab6000830184610c87565b92915050565b610cba81610ba5565b8114610cc557600080fd5b50565b600081359050610cd781610cb1565b92915050565b60008060408385031215610cf457610cf3610b15565b5b6000610d0285828601610b63565b9250506020610d1385828601610cc8565b9150509250929050565b60008115159050919050565b610d3281610d1d565b82525050565b6000602082019050610d4d6000830184610d29565b92915050565b600082825260208201905092915050565b7f596f7520617265206e6f74206f776e6572000000000000000000000000000000600082015250565b6000610d9a601183610d53565b9150610da582610d64565b602082019050919050565b60006020820190508181036000830152610dc981610d8d565b9050919050565b7f4e487b7100000000000000000000000000000000000000000000000000000000600052601160045260246000fd5b6000610e0a82610ba5565b9150610e1583610ba5565b9250828201905080821115610e2d57610e2c610dd0565b5b92915050565b7f77696e646f77206973206e6f7420636c6f736564000000000000000000000000600082015250565b6000610e69601483610d53565b9150610e7482610e33565b602082019050919050565b60006020820190508181036000830152610e9881610e5c565b9050919050565b7f5441524745542049532052454143484544000000000000000000000000000000600082015250565b6000610ed5601183610d53565b9150610ee082610e9f565b602082019050919050565b60006020820190508181036000830152610f0481610ec8565b9050919050565b7f7468657265206973206e6f742066756e6420666f7220796f7500000000000000600082015250565b6000610f41601983610d53565b9150610f4c82610f0b565b602082019050919050565b60006020820190508181036000830152610f7081610f34565b9050919050565b600081905092915050565b50565b6000610f92600083610f77565b9150610f9d82610f82565b600082019050919050565b6000610fb382610f85565b9150819050919050565b7f7472616e61666572207478206661696c65640000000000000000000000000000600082015250565b6000610ff3601283610d53565b9150610ffe82610fbd565b602082019050919050565b6000602082019050818103600083015261102281610fe6565b9050919050565b7f544152474554204953204e4f5420524541434845440000000000000000000000600082015250565b600061105f601583610d53565b915061106a82611029565b602082019050919050565b6000602082019050818103600083015261108e81611052565b9050919050565b7f596f75206e65656420746f2073656e64206d6f72652065746800000000000000600082015250565b60006110cb601983610d53565b91506110d682611095565b602082019050919050565b600060208201905081810360008301526110fa816110be565b9050919050565b7f77696e646f7720697320636c6f73656400000000000000000000000000000000600082015250565b6000611137601083610d53565b915061114282611101565b602082019050919050565b600060208201905081810360008301526111668161112a565b9050919050565b600069ffffffffffffffffffff82169050919050565b61118c8161116d565b811461119757600080fd5b50565b6000815190506111a981611183565b92915050565b6111b881610c7d565b81146111c357600080fd5b50565b6000815190506111d5816111af565b92915050565b6000815190506111ea81610cb1565b92915050565b600080600080600060a0868803121561120c5761120b610b15565b5b600061121a8882890161119a565b955050602061122b888289016111c6565b945050604061123c888289016111db565b935050606061124d888289016111db565b925050608061125e8882890161119a565b9150509295509295909350565b7f796f7520646f206e6f742068617665207065726d697373696f6e20746f20636160008201527f6c6c20746869732066756e6374696f6e00000000000000000000000000000000602082015250565b60006112c7603083610d53565b91506112d28261126b565b604082019050919050565b600060208201905081810360008301526112f6816112ba565b9050919050565b600061130882610ba5565b915061131383610ba5565b925082820261132181610ba5565b9150828204841483151761133857611337610dd0565b5b5092915050565b7f4e487b7100000000000000000000000000000000000000000000000000000000600052601260045260246000fd5b600061137982610ba5565b915061138483610ba5565b9250826113945761139361133f565b5b82820490509291505056fea264697066735822122027dc2544e27d0314f143aba2584e73837a40ea57428b2ac2ee2eca2a7eecbbcb64736f6c634300081c0033",
  "devdoc": {
    "kind": "dev",
    "methods": {},
    "version": 1
  },
  "userdoc": {
    "kind": "user",
    "methods": {},
    "version": 1
  },
  "storageLayout": {
    "storage": [
      {
        "astId": 53,
        "contract": "contracts/FundMe.sol:FundMe",
        "label": "funderToAmount",
        "offset": 0,
        "slot": "0",
        "type": "t_mapping(t_address,t_uint256)"
      },
      {
        "astId": 69,
        "contract": "contracts/FundMe.sol:FundMe",
        "label": "owner",
        "offset": 0,
        "slot": "1",
        "type": "t_address"
      },
      {
        "astId": 71,
        "contract": "contracts/FundMe.sol:FundMe",
        "label": "deploymentTimestamp",
        "offset": 0,
        "slot": "2",
        "type": "t_uint256"
      },
      {
        "astId": 73,
        "contract": "contracts/FundMe.sol:FundMe",
        "label": "lockTime",
        "offset": 0,
        "slot": "3",
        "type": "t_uint256"
      },
      {
        "astId": 75,
        "contract": "contracts/FundMe.sol:FundMe",
        "label": "erc20Addr",
        "offset": 0,
        "slot": "4",
        "type": "t_address"
      },
      {
        "astId": 77,
        "contract": "contracts/FundMe.sol:FundMe",
        "label": "getFundSuccess",
        "offset": 20,
        "slot": "4",
        "type": "t_bool"
      },
      {
        "astId": 80,
        "contract": "contracts/FundMe.sol:FundMe",
        "label": "dataFeed",
        "offset": 0,
        "slot": "5",
        "type": "t_contract(AggregatorV3Interface)45"
      }
    ],
    "types": {
      "t_address": {
        "encoding": "inplace",
        "label": "address",
        "numberOfBytes": "20"
      },
      "t_bool": {
        "encoding": "inplace",
        "label": "bool",
        "numberOfBytes": "1"
      },
      "t_contract(AggregatorV3Interface)45": {
        "encoding": "inplace",
        "label": "contract AggregatorV3Interface",
        "numberOfBytes": "20"
      },
      "t_mapping(t_address,t_uint256)": {
        "encoding": "mapping",
        "key": "t_address",
        "label": "mapping(address => uint256)",
        "numberOfBytes": "32",
        "value": "t_uint256"
      },
      "t_uint256": {
        "encoding": "inplace",
        "label": "uint256",
        "numberOfBytes": "32"
      }
    }
  }
}